:020000040000FA
:020000000A28CC
:10000800FE00030EF6000A08F700182A0B28F00174
:10001800F101F201F301F401F50183120313A001C8
:10002800A101A201A301A401A501A601A7018301C1
:100038003D2AF8007808840083130008031925284E
:1000480026283928831203132608031D2C282D2857
:1000580039287808023E84000008031D3428352812
:1000680039280515A601A60A58287808840000082A
:10007800031D3F2840284728831203132608031D21
:100088004628472856287808023E840000080319A5
:100098004E284F2858288312031326080319552879
:1000A800562858280511A601780A84000008031963
:1000B8005E285F287228831203132508031D65280C
:1000C800662872287808033E84000008031D6D28FE
:1000D8006E2872288515A501A50A9128780A84003A
:1000E8000008031D7828792880288312031325081F
:1000F800031D7F2880288F287808033E8400000885
:1001080003198728882891288312031325080319BF
:100118008E288F2891288511A5010800F9007208FA
:10012800031D97289828C5288312031306199D28AC
:100138009E28C5287908840083130008031DA52874
:10014800A628C5287108031DAA28AB28B22809309B
:10015800F8007808F500F101F10AF7287508031D81
:10016800B628B728F7280619BA28BB28C328F201E9
:10017800F20AF101790A84008001800AF728F10166
:10018800F72872080319C928CA28E6288312031316
:10019800061DCF28D028E6287108031DD428D528A5
:1001A800D628AB287508031DDA28DB28F728061D92
:1001B800DE28DF28F728F201F101790A8400831389
:1001C8008001F728831203130619EB28EC28F72877
:1001D80071080319F028F128F72872080319F5287F
:1001E800F628F728C3280800F9007008031DFD2821
:1001F800FE282B29831203138619032904292B2986
:10020800790A840083130008031D0B290C292B2964
:100218002708031D1029112918290930F800780822
:10022800F400A701A70A5D297408031D1C291D29CC
:100238005D298619202921292929F001F00AA70119
:10024800790884008001800A5D29A7015D2970086A
:1002580003192F2930294C2983120313861D3529A8
:1002680036294C292708031D3A293B293C291129FD
:100278007408031D402941295D29861D4429452903
:100288005D29F001A70179088400831380015D29A5
:10029800831203138619512952295D292708031946
:1002A800562957295D29700803195B295C295D299E
:1002B80029290800F900831203132208031D652960
:1002C80066298B29861869296A298B292108031D23
:1002D8006E296F2976290330F8007808F300A10108
:1002E800A10ABA297308031D7A297B29BA29861815
:1002F8007E297F298929A201A20AA1017908033E42
:10030800840083138001800ABA29A101BA2922082E
:1003180003198F299029AB29861C93299429AB2985
:100328002108031D982999299A296F297308031D03
:100338009E299F29BA29861CA229A329BA29A20184
:10034800A1017908033E840083138001BA29861825
:10035800AE29AF29BA2921080319B329B429BA2922
:1003680022080319B829B929BA2989290800F900E6
:10037800831203132408031DC229C329E829061878
:10038800C629C729E8292308031DCB29CC29D32945
:100398000330F8007808F300A301A30A172A7308AA
:1003A800031DD729D829172A0618DB29DC29E629AD
:1003B800A401A40AA3017908023E840083138001E2
:1003C800800A172AA301172A24080319EC29ED2902
:1003D800082A061CF029F129082A2308031DF529F3
:1003E800F629F729CC297308031DFB29FC29172AAC
:1003F800061CFF29002A172AA401A3017908023E36
:10040800840083138001172A06180B2A0C2A172A3E
:1004180023080319102A112A172A24080319152A50
:10042800162A172AE62908008B1E1B2A1C2A362A98
:100438000B1D1F2A202A362A75080319242A252A63
:10044800272A0130F502740803192B2A2C2A2E2A90
:100458000130F40273080319322A332A352A01308D
:10046800F3020B1177088A00760E8300FE0E7E0ECB
:1004780009005222662283120313A801A901AA01C6
:10048800AB0164002830F820283092202830BB21A6
:1004980028305E2128301D20452A0A28703083160E
:1004A80003138F0406148614061586158511051185
:1004B80086121F08F03907389F008312031385112D
:1004C8000511080083160313811281110730810476
:0804D8008B168B170B170800AF
:02400E007CFF35
:00000001FF
